:100000000C945D000C9485000C9485000C94850084
:100010000C9485000C9485000C9485000C9485004C
:100020000C9485000C9485000C9485000C9485003C
:100030000C9485000C9485000C9485000C9485002C
:100040000C9486020C9485000C94F6020C94D00259
:100050000C9485000C9485000C9485000C9485000C
:100060000C9485000C9485000000000024002700FB
:100070002A0000000000250028002B0004040404CE
:100080000404040402020202020203030303030342
:10009000010204081020408001020408102001021F
:1000A00004081020000000080002010000030407FB
:1000B0000000000000000000280311241FBECFEF45
:1000C000D8E0DEBFCDBF11E0A0E0B1E0E2E7F9E0AB
:1000D00002C005900D92A631B107D9F721E0A6E143
:1000E000B1E001C01D92AD3BB207E1F710E0CDE5F4
:1000F000D0E004C02197FE010E94AC04CC35D107AA
:10010000C9F70E9460030C94B7040C940000EEEA57
:10011000F0E09491EAE9F0E02491E6E8F0E0E4917F
:10012000EE2309F43CC0992339F1933091F038F46F
:100130009130A9F0923001F594B59F7D12C09730AF
:1001400091F09830A1F09430B9F4909180009F7DA7
:1001500003C0909180009F77909380000DC094B56C
:100160009F7794BD09C09091B0009F7703C0909194
:10017000B0009F7D9093B000F0E0EE0FFF1FEE58AF
:10018000FF4FA591B4919FB7F894811104C08C9151
:100190002095282302C0EC912E2B2C939FBF08950D
:1001A00090E0FC01E057FF4F2491FC01E458FF4F21
:1001B0008491882399F090E0880F991FFC01E859F9
:1001C000FF4FA591B491FC01EE58FF4F859194919A
:1001D0008FB7F894EC91E22BEC938FBF08953FB763
:1001E000F8948091180190911901A0911A01B09191
:1001F0001B0126B5A89B05C02F3F19F00196A11D34
:10020000B11D3FBFBA2FA92F982F8827820F911DAC
:10021000A11DB11DBC01CD0142E0660F771F881FF3
:10022000991F4A95D1F708958F929F92AF92BF92EE
:10023000CF92DF92EF92FF920E94EF004B015C01A0
:1002400084EFC82EDD24D394E12CF12C0E94EF0022
:10025000DC01CB0188199909AA09BB09883E9340A2
:10026000A105B10598F321E0C21AD108E108F1080F
:1002700088EE880E83E0981EA11CB11CC114D10425
:10028000E104F10419F7FF90EF90DF90CF90BF9059
:10029000AF909F908F900895CF92DF92EF92FF9250
:1002A0000F931F93CF93DF936C017A018B01C0E012
:1002B000D0E0CE15DF0581F0D8016D918D01D6011A
:1002C000ED91FC910190F081E02DC6010995892BFB
:1002D00011F02196EECF7E01C701DF91CF911F91E2
:1002E0000F91FF90EF90DF90CF900895089580E0F8
:1002F00090E00895FC01538D448D252F30E0842F2C
:1003000090E0821B930B541710F0CF96089501973D
:100310000895FC01918D828D981761F0828DDF0127
:10032000A80FB11D5D968C91928D9F5F9F73928FE8
:1003300090E008958FEF9FEF0895FC01918D828DDD
:10034000981731F0828DE80FF11D858D90E00895AA
:100350008FEF9FEF0895FC01918D228D892F90E002
:10036000805C9F4F821B91098F73992708958CE1C0
:1003700091E00E94AB0121E0892B09F420E0822F5B
:100380000895FC01848DDF01A80FB11DA35ABF4F52
:100390002C91848D90E001968F739927848FA68984
:1003A000B7892C93A089B1898C91837080648C93D8
:1003B000938D848D981306C00288F389E02D808187
:1003C0008F7D80830895EF92FF920F931F93CF93B9
:1003D000DF93EC0181E0888F9B8D8C8D981305C095
:1003E000E889F989808185FD26C0F62E0B8D10E005
:1003F0000F5F1F4F0F731127E02E8C8DE8120CC07A
:100400000FB607FCFACFE889F989808185FFF5CF1F
:10041000CE010E94C101F1CF8B8DFE01E80FF11DCD
:10042000E35AFF4FF0829FB7F8940B8FEA89FB895C
:10043000808180620AC09FB7F894EE89FF8960834B
:10044000E889F98980818370806480839FBF81E01F
:1004500090E0DF91CF911F910F91FF90EF90089561
:10046000CF93DF93EC01888D8823C9F0EA89FB895B
:10047000808185FD05C0A889B9898C9186FD0FC052
:100480000FB607FCF5CF808185FFF2CFA889B98927
:100490008C9185FFEDCFCE010E94C101E7CFDF91A6
:1004A000CF91089580E090E0892B29F00E94B70158
:1004B00081110C9400000895CF93C82F80E00E9412
:1004C000870081E18EBD00000DB407FEFDCF8EB523
:1004D000CEBD00000DB407FEFDCF8EB581E0CF91FB
:1004E0000C948700009769F0FC0101900020E9F767
:1004F0003197AF01481B590BBC018CE191E00C9482
:100500004C0180E090E008950E94B2041F920F9287
:100510000FB60F9211242F933F938F939F93AF9316
:10052000BF938091B9019091BA01A091BB01B091A4
:10053000BC013091170123E0230F2D3720F40196E1
:10054000A11DB11D05C026E8230F0296A11DB11DF6
:10055000209317018093B9019093BA01A093BB0136
:10056000B093BC018091180190911901A0911A01DA
:10057000B0911B010196A11DB11D809318019093AC
:100580001901A0931A01B0931B01BF91AF919F91E4
:100590008F913F912F910F900FBE0F901F90189544
:1005A0001F920F920FB60F9211242F933F934F93E8
:1005B0005F936F937F938F939F93AF93BF93EF93CB
:1005C000FF938CE191E00E94C101FF91EF91BF91F7
:1005D000AF919F918F917F916F915F914F913F91DB
:1005E0002F910F900FBE0F901F9018951F920F9292
:1005F0000FB60F9211242F938F939F93EF93FF9336
:10060000E0912C01F0912D018081E0913201F09177
:10061000330182FD12C09081809135018F5F8F730D
:1006200020913601821751F0E0913501F0E0E45E4F
:10063000FE4F958F8093350101C08081FF91EF912E
:100640009F918F912F910F900FBE0F901F90189533
:10065000ECE1F1E01382128288EE93E0A0E0B0E0DA
:1006600084839583A683B78384E091E0918380831C
:1006700085EC90E09587848784EC90E09787868767
:1006800080EC90E0918B808B81EC90E0938B828B5F
:1006900082EC90E0958B848B86EC90E0978B868B38
:1006A000118E128E138E148E8FB7F8944091B9016B
:1006B0005091BA016091BB017091BC018FBF089548
:1006C000CF93DF93CDB7DEB7A1970FB6F894DEBF17
:1006D0000FBECDBF789484B5826084BD84B581603F
:1006E00084BD85B5826085BD85B5816085BD8091FD
:1006F0006E00816080936E00109281008091810075
:10070000826080938100809181008160809381006C
:10071000809180008160809380008091B10084602E
:100720008093B1008091B00081608093B00080918F
:100730007A00846080937A0080917A00826080934E
:100740007A0080917A00816080937A0080917A00AB
:10075000806880937A001092C1008AE00E94D000E5
:10076000E0912C01F0912D0182E08083E09128013D
:10077000F09129011082E0912A01F0912B018FEC78
:10078000808310923401E0913001F091310186E0D4
:100790008083E0912E01F0912F0180818061808320
:1007A000E0912E01F0912F01808188608083E0919B
:1007B0002E01F0912F01808180688083E0912E01CD
:1007C000F0912F0180818F7D80831FB7F8948091F5
:1007D0001601811123C0E6E8F0E08491EAE9F0E037
:1007E0009491E82FF0E0EE0FFF1FE859FF4FA5911D
:1007F000B491EC91E92319F481E00E9487008AE02A
:100800000E94D0008CB580618CBD8CB580648CBD9D
:100810008DE00E94D0008BE00E94D00080911601F4
:100820008F5F809316011FBF80E4D82E9AE0892E37
:10083000912CA12CB12CD0927C0080917A00806404
:1008400080937A0080917A0086FDFCCF0091780039
:100850008091790010E0182B2801012E000C660809
:10086000770817FF20C06DE28CE191E00E94E30160
:1008700022273327A901241935094609570919A246
:10088000CE0181967C01CA01B901A50194010E94A3
:100890008A04605DF70162937F01211531054105EE
:1008A000510589F715C0A301920119A2CE018196C5
:1008B0007C01CA01B901A50194010E948A04605D0E
:1008C000F70162937F01211531054105510589F733
:1008D000C7010E94720242E050E062E171E08CE1E7
:1008E00091E00E944C01033CF1E01F076CF48EE69E
:1008F00090E00E945C020E94140181E390E00E945B
:100900005C020E94140103C0C8010E945C020E94A4
:10091000520291CFA1E21A2EAA1BBB1BFD010DC0F2
:10092000AA1FBB1FEE1FFF1FA217B307E407F5079F
:1009300020F0A21BB30BE40BF50B661F771F881F7B
:10094000991F1A9469F760957095809590959B0111
:10095000AC01BD01CF010895EE0FFF1F0590F4918A
:10096000E02D099481E090E0F8940C94B704F89499
:02097000FFCFB7
:1009720000000000E3014C017A013002AB01890161
:060982009D010D0A0000BA
:00000001FF
